{
  "_format": "hh-sol-artifact-1",
  "contractName": "PayToVote",
  "sourceName": "contracts/Vote.sol",
  "abi": [
    {
      "anonymous": false,
      "inputs": [
        {
          "indexed": true,
          "internalType": "address",
          "name": "from",
          "type": "address"
        },
        {
          "indexed": false,
          "internalType": "uint256",
          "name": "amount",
          "type": "uint256"
        }
      ],
      "name": "NewTx",
      "type": "event"
    },
    {
      "inputs": [
        {
          "internalType": "address",
          "name": "",
          "type": "address"
        }
      ],
      "name": "balance",
      "outputs": [
        {
          "internalType": "uint256",
          "name": "",
          "type": "uint256"
        }
      ],
      "stateMutability": "view",
      "type": "function"
    },
    {
      "inputs": [],
      "name": "getVotersCount",
      "outputs": [
        {
          "internalType": "uint256",
          "name": "",
          "type": "uint256"
        }
      ],
      "stateMutability": "view",
      "type": "function"
    },
    {
      "inputs": [
        {
          "internalType": "uint256",
          "name": "",
          "type": "uint256"
        }
      ],
      "name": "topBalances",
      "outputs": [
        {
          "internalType": "uint256",
          "name": "balance",
          "type": "uint256"
        },
        {
          "internalType": "address",
          "name": "addr",
          "type": "address"
        }
      ],
      "stateMutability": "view",
      "type": "function"
    },
    {
      "inputs": [],
      "name": "vote",
      "outputs": [],
      "stateMutability": "payable",
      "type": "function"
    },
    {
      "inputs": [
        {
          "internalType": "uint256",
          "name": "",
          "type": "uint256"
        }
      ],
      "name": "voters",
      "outputs": [
        {
          "internalType": "address",
          "name": "",
          "type": "address"
        }
      ],
      "stateMutability": "view",
      "type": "function"
    }
  ],
  "bytecode": "0x608060405234801561001057600080fd5b50610d1b806100206000396000f3fe60806040526004361061004a5760003560e01c8063197e8d661461004f578063632a9a521461008d578063c0f2a77714610097578063da58c7d9146100c2578063e3d670d7146100ff575b600080fd5b34801561005b57600080fd5b5061007660048036038101906100719190610aa9565b61013c565b604051610084929190610b26565b60405180910390f35b610095610190565b005b3480156100a357600080fd5b506100ac610255565b6040516100b99190610b0b565b60405180910390f35b3480156100ce57600080fd5b506100e960048036038101906100e49190610aa9565b610261565b6040516100f69190610af0565b60405180910390f35b34801561010b57600080fd5b5061012660048036038101906101219190610a80565b6102a0565b6040516101339190610b0b565b60405180910390f35b6002818154811061014c57600080fd5b90600052602060002090600202016000915090508060000154908060010160009054906101000a900473ffffffffffffffffffffffffffffffffffffffff16905082565b6000341161019d57600080fd5b3373ffffffffffffffffffffffffffffffffffffffff167fd0796b83dbc1d4108ba72027fcb5b573879ff1ad4dd2689db2d6239075a95bb4346040516101e39190610b0b565b60405180910390a234600160003373ffffffffffffffffffffffffffffffffffffffff1673ffffffffffffffffffffffffffffffffffffffff168152602001908152602001600020600082825461023a9190610b4f565b925050819055506102496102b8565b6102533334610386565b565b60008080549050905090565b6000818154811061027157600080fd5b906000526020600020016000915054906101000a900473ffffffffffffffffffffffffffffffffffffffff1681565b60016020528060005260406000206000915090505481565b6102c0610a26565b60008160000181815250506000816020019073ffffffffffffffffffffffffffffffffffffffff16908173ffffffffffffffffffffffffffffffffffffffff168152505060028190806001815401808255809150506001900390600052602060002090600202016000909190919091506000820151816000015560208201518160010160006101000a81548173ffffffffffffffffffffffffffffffffffffffff021916908373ffffffffffffffffffffffffffffffffffffffff160217905550505050565b6000806000905060005b6002805490508110156104b157600281815481106103d7577f4e487b7100000000000000000000000000000000000000000000000000000000600052603260045260246000fd5b906000526020600020906002020160010160009054906101000a900473ffffffffffffffffffffffffffffffffffffffff1673ffffffffffffffffffffffffffffffffffffffff168573ffffffffffffffffffffffffffffffffffffffff16141561049e57600192506002818154811061047a577f4e487b7100000000000000000000000000000000000000000000000000000000600052603260045260246000fd5b906000526020600020906002020160000154846104979190610b4f565b93506104b1565b80806104a990610c3f565b915050610390565b5b60028054905082101561052a5783600283815481106104fa577f4e487b7100000000000000000000000000000000000000000000000000000000600052603260045260246000fd5b90600052602060002090600202016000015410156105175761052a565b818061052290610c3f565b9250506104b2565b60001515831515141561077a576000859080600181540180825580915050600190039060005260206000200160009091909190916101000a81548173ffffffffffffffffffffffffffffffffffffffff021916908373ffffffffffffffffffffffffffffffffffffffff160217905550600060016002805490506105ae9190610ba5565b90505b828111156107745760026001826105c89190610ba5565b815481106105ff577f4e487b7100000000000000000000000000000000000000000000000000000000600052603260045260246000fd5b9060005260206000209060020201600001546002828154811061064b577f4e487b7100000000000000000000000000000000000000000000000000000000600052603260045260246000fd5b906000526020600020906002020160000181905550600260018261066f9190610ba5565b815481106106a6577f4e487b7100000000000000000000000000000000000000000000000000000000600052603260045260246000fd5b906000526020600020906002020160010160009054906101000a900473ffffffffffffffffffffffffffffffffffffffff1660028281548110610712577f4e487b7100000000000000000000000000000000000000000000000000000000600052603260045260246000fd5b906000526020600020906002020160010160006101000a81548173ffffffffffffffffffffffffffffffffffffffff021916908373ffffffffffffffffffffffffffffffffffffffff160217905550808061076c90610c15565b9150506105b1565b50610945565b60008190505b828111156109435760026001826107979190610ba5565b815481106107ce577f4e487b7100000000000000000000000000000000000000000000000000000000600052603260045260246000fd5b9060005260206000209060020201600001546002828154811061081a577f4e487b7100000000000000000000000000000000000000000000000000000000600052603260045260246000fd5b906000526020600020906002020160000181905550600260018261083e9190610ba5565b81548110610875577f4e487b7100000000000000000000000000000000000000000000000000000000600052603260045260246000fd5b906000526020600020906002020160010160009054906101000a900473ffffffffffffffffffffffffffffffffffffffff16600282815481106108e1577f4e487b7100000000000000000000000000000000000000000000000000000000600052603260045260246000fd5b906000526020600020906002020160010160006101000a81548173ffffffffffffffffffffffffffffffffffffffff021916908373ffffffffffffffffffffffffffffffffffffffff160217905550808061093b90610c15565b915050610780565b505b8360028381548110610980577f4e487b7100000000000000000000000000000000000000000000000000000000600052603260045260246000fd5b90600052602060002090600202016000018190555084600283815481106109d0577f4e487b7100000000000000000000000000000000000000000000000000000000600052603260045260246000fd5b906000526020600020906002020160010160006101000a81548173ffffffffffffffffffffffffffffffffffffffff021916908373ffffffffffffffffffffffffffffffffffffffff1602179055505050505050565b604051806040016040528060008152602001600073ffffffffffffffffffffffffffffffffffffffff1681525090565b600081359050610a6581610cb7565b92915050565b600081359050610a7a81610cce565b92915050565b600060208284031215610a9257600080fd5b6000610aa084828501610a56565b91505092915050565b600060208284031215610abb57600080fd5b6000610ac984828501610a6b565b91505092915050565b610adb81610bd9565b82525050565b610aea81610c0b565b82525050565b6000602082019050610b056000830184610ad2565b92915050565b6000602082019050610b206000830184610ae1565b92915050565b6000604082019050610b3b6000830185610ae1565b610b486020830184610ad2565b9392505050565b6000610b5a82610c0b565b9150610b6583610c0b565b9250827fffffffffffffffffffffffffffffffffffffffffffffffffffffffffffffffff03821115610b9a57610b99610c88565b5b828201905092915050565b6000610bb082610c0b565b9150610bbb83610c0b565b925082821015610bce57610bcd610c88565b5b828203905092915050565b6000610be482610beb565b9050919050565b600073ffffffffffffffffffffffffffffffffffffffff82169050919050565b6000819050919050565b6000610c2082610c0b565b91506000821415610c3457610c33610c88565b5b600182039050919050565b6000610c4a82610c0b565b91507fffffffffffffffffffffffffffffffffffffffffffffffffffffffffffffffff821415610c7d57610c7c610c88565b5b600182019050919050565b7f4e487b7100000000000000000000000000000000000000000000000000000000600052601160045260246000fd5b610cc081610bd9565b8114610ccb57600080fd5b50565b610cd781610c0b565b8114610ce257600080fd5b5056fea26469706673582212204d4aa17303b79390b7c03ead559e3ead189b919824dfb95113f1ebadf3d3a52664736f6c63430008040033",
  "linkReferences": {},
  "deployedLinkReferences": {}
}